{
  "contractName": "messageContract",
  "abi": [
    {
      "constant": true,
      "inputs": [],
      "name": "x",
      "outputs": [
        {
          "name": "",
          "type": "uint256"
        }
      ],
      "payable": false,
      "stateMutability": "view",
      "type": "function"
    },
    {
      "constant": true,
      "inputs": [],
      "name": "newMessage",
      "outputs": [
        {
          "name": "orderpart",
          "type": "bytes32"
        },
        {
          "name": "orderno",
          "type": "uint256"
        },
        {
          "name": "orderdesc",
          "type": "bytes32"
        },
        {
          "name": "ordertime",
          "type": "uint256"
        },
        {
          "name": "ordersender",
          "type": "address"
        },
        {
          "name": "orderreceiver",
          "type": "address"
        }
      ],
      "payable": false,
      "stateMutability": "view",
      "type": "function"
    },
    {
      "inputs": [],
      "payable": false,
      "stateMutability": "nonpayable",
      "type": "constructor"
    },
    {
      "constant": false,
      "inputs": [
        {
          "name": "part",
          "type": "bytes32"
        },
        {
          "name": "no",
          "type": "uint256"
        },
        {
          "name": "desc",
          "type": "bytes32"
        },
        {
          "name": "addr",
          "type": "address"
        }
      ],
      "name": "sendMessage",
      "outputs": [],
      "payable": false,
      "stateMutability": "nonpayable",
      "type": "function"
    },
    {
      "constant": true,
      "inputs": [
        {
          "name": "part",
          "type": "bytes32"
        }
      ],
      "name": "test",
      "outputs": [
        {
          "name": "",
          "type": "uint256"
        }
      ],
      "payable": false,
      "stateMutability": "view",
      "type": "function"
    },
    {
      "constant": true,
      "inputs": [
        {
          "name": "part",
          "type": "bytes32"
        }
      ],
      "name": "readMessage",
      "outputs": [
        {
          "name": "",
          "type": "uint256"
        }
      ],
      "payable": false,
      "stateMutability": "view",
      "type": "function"
    }
  ],
  "bytecode": "0x6080604052600260005560c06040519081016040528060cc6001026000191681526020016000815260200160aa60010260001916815260200142815260200173c53dd799c36fe7ce3c47e405e0e2a6d2bf7c182673ffffffffffffffffffffffffffffffffffffffff16815260200173c53dd799c36fe7ce3c47e405e0e2a6d2bf7c182673ffffffffffffffffffffffffffffffffffffffff1681525060016000820151816000019060001916905560208201518160010155604082015181600201906000191690556060820151816003015560808201518160040160006101000a81548173ffffffffffffffffffffffffffffffffffffffff021916908373ffffffffffffffffffffffffffffffffffffffff16021790555060a08201518160050160006101000a81548173ffffffffffffffffffffffffffffffffffffffff021916908373ffffffffffffffffffffffffffffffffffffffff160217905550505034801561016e57600080fd5b5060cc600102600160000181600019169055506000600180018190555060aa6001026001600201816000191690555042600160030181905550610432806101b66000396000f30060806040526004361061006d576000357c0100000000000000000000000000000000000000000000000000000000900463ffffffff1680630c55699c14610072578063254f5c251461009d578063290d190c146101535780639523b56e146101985780639937232114610201575b600080fd5b34801561007e57600080fd5b50610087610246565b6040518082815260200191505060405180910390f35b3480156100a957600080fd5b506100b261024c565b60405180876000191660001916815260200186815260200185600019166000191681526020018481526020018373ffffffffffffffffffffffffffffffffffffffff1673ffffffffffffffffffffffffffffffffffffffff1681526020018273ffffffffffffffffffffffffffffffffffffffff1673ffffffffffffffffffffffffffffffffffffffff168152602001965050505050505060405180910390f35b34801561015f57600080fd5b5061018260048036038101908080356000191690602001909291905050506102b6565b6040518082815260200191505060405180910390f35b3480156101a457600080fd5b506101ff6004803603810190808035600019169060200190929190803590602001909291908035600019169060200190929190803573ffffffffffffffffffffffffffffffffffffffff16906020019092919050505061033e565b005b34801561020d57600080fd5b5061023060048036038101908080356000191690602001909291905050506103fb565b6040518082815260200191505060405180910390f35b60005481565b60018060000154908060010154908060020154908060030154908060040160009054906101000a900473ffffffffffffffffffffffffffffffffffffffff16908060050160009054906101000a900473ffffffffffffffffffffffffffffffffffffffff16905086565b6000600160050160009054906101000a900473ffffffffffffffffffffffffffffffffffffffff1673ffffffffffffffffffffffffffffffffffffffff163373ffffffffffffffffffffffffffffffffffffffff1614151561031757600080fd5b81600019166001600001546000191614151561033257600080fd5b60018001549050919050565b8360016000018160001916905550826001800181905550816001600201816000191690555033600160040160006101000a81548173ffffffffffffffffffffffffffffffffffffffff021916908373ffffffffffffffffffffffffffffffffffffffff16021790555080600160050160006101000a81548173ffffffffffffffffffffffffffffffffffffffff021916908373ffffffffffffffffffffffffffffffffffffffff1602179055504260016003018190555050505050565b6000805490509190505600a165627a7a723058207358227cef7ff321cca905a646ce3540987cfd1988e381ddfc63b8717e13518a0029",
  "source": "pragma solidity ^0.4.0;\n\ncontract messageContract{\n    \n    //structure of message\n    struct message{\n        bytes32 orderpart;\n        uint orderno;\n        bytes32 orderdesc;\n        uint ordertime;\n        address ordersender;\n        address orderreceiver;\n    }\n\n    uint public x =2;\n    message public newMessage =  message(0xcc,0,0xaa,now,0xc53dd799c36fe7ce3c47e405e0e2a6d2bf7c1826,0xc53dd799c36fe7ce3c47e405e0e2a6d2bf7c1826);  //making object\n    \n    //Constructor\n    function messageContract(){\n        newMessage.orderpart = 0xcc;  // unique identity\n        newMessage.orderno = 0;\n        newMessage.orderdesc = 0xaa;  //description\n        newMessage.ordertime = now ; //sending time\n    }\n\n    //function to send the message (setter in language of blockchain and solidity)\n    function sendMessage(bytes32 part, uint no, bytes32 desc, address addr){\n        newMessage.orderpart = part;\n        newMessage.orderno = no;\n        newMessage.orderdesc = desc;\n        newMessage.ordersender = msg.sender;\n        newMessage.orderreceiver = addr;\n        newMessage.ordertime = now;\n    }\n\n    function test(bytes32 part) constant public returns(uint){\n        return (x);\n    }\n    \n    //function to read the message (getter in language of blockchain and solidity)\n    function readMessage(bytes32 part) constant public returns( uint ){\n        if(msg.sender != newMessage.orderreceiver) throw;\n        if( newMessage.orderpart != part) throw;\n        return (newMessage.orderno);\n    }\n}",
  "sourcePath": "/home/shivank/DellHack/contracts/messageContract.sol",
  "compiler": {
    "name": "solc",
    "version": "0.4.24+commit.e67f0147.Emscripten.clang"
  },
  "schemaVersion": "2.0.1",
  "updatedAt": "2018-11-12T08:19:03.760Z"
}